{
  "_format": "hh-sol-artifact-1",
  "contractName": "Gravity",
  "sourceName": "contracts/Gravity.sol",
  "abi": [
    {
      "inputs": [
        {
          "internalType": "bytes32",
          "name": "_gravityId",
          "type": "bytes32"
        },
        {
          "internalType": "uint256",
          "name": "_powerThreshold",
          "type": "uint256"
        },
        {
          "internalType": "address[]",
          "name": "_validators",
          "type": "address[]"
        },
        {
          "internalType": "uint256[]",
          "name": "_powers",
          "type": "uint256[]"
        },
        {
          "internalType": "contract CudosAccessControls",
          "name": "_cudosAccessControls",
          "type": "address"
        }
      ],
      "stateMutability": "nonpayable",
      "type": "constructor"
    },
    {
      "anonymous": false,
      "inputs": [
        {
          "indexed": false,
          "internalType": "string",
          "name": "_cosmosDenom",
          "type": "string"
        },
        {
          "indexed": true,
          "internalType": "address",
          "name": "_tokenContract",
          "type": "address"
        },
        {
          "indexed": false,
          "internalType": "string",
          "name": "_name",
          "type": "string"
        },
        {
          "indexed": false,
          "internalType": "string",
          "name": "_symbol",
          "type": "string"
        },
        {
          "indexed": false,
          "internalType": "uint8",
          "name": "_decimals",
          "type": "uint8"
        },
        {
          "indexed": false,
          "internalType": "uint256",
          "name": "_eventNonce",
          "type": "uint256"
        }
      ],
      "name": "ERC20DeployedEvent",
      "type": "event"
    },
    {
      "anonymous": false,
      "inputs": [
        {
          "indexed": false,
          "internalType": "bytes32",
          "name": "_invalidationId",
          "type": "bytes32"
        },
        {
          "indexed": false,
          "internalType": "uint256",
          "name": "_invalidationNonce",
          "type": "uint256"
        },
        {
          "indexed": false,
          "internalType": "bytes",
          "name": "_returnData",
          "type": "bytes"
        },
        {
          "indexed": false,
          "internalType": "uint256",
          "name": "_eventNonce",
          "type": "uint256"
        }
      ],
      "name": "LogicCallEvent",
      "type": "event"
    },
    {
      "anonymous": false,
      "inputs": [
        {
          "indexed": true,
          "internalType": "address",
          "name": "_tokenContract",
          "type": "address"
        },
        {
          "indexed": true,
          "internalType": "address",
          "name": "_sender",
          "type": "address"
        },
        {
          "indexed": true,
          "internalType": "bytes32",
          "name": "_destination",
          "type": "bytes32"
        },
        {
          "indexed": false,
          "internalType": "uint256",
          "name": "_amount",
          "type": "uint256"
        },
        {
          "indexed": false,
          "internalType": "uint256",
          "name": "_eventNonce",
          "type": "uint256"
        }
      ],
      "name": "SendToCosmosEvent",
      "type": "event"
    },
    {
      "anonymous": false,
      "inputs": [
        {
          "indexed": true,
          "internalType": "uint256",
          "name": "_batchNonce",
          "type": "uint256"
        },
        {
          "indexed": true,
          "internalType": "address",
          "name": "_token",
          "type": "address"
        },
        {
          "indexed": false,
          "internalType": "uint256",
          "name": "_eventNonce",
          "type": "uint256"
        }
      ],
      "name": "TransactionBatchExecutedEvent",
      "type": "event"
    },
    {
      "anonymous": false,
      "inputs": [
        {
          "indexed": true,
          "internalType": "uint256",
          "name": "_newValsetNonce",
          "type": "uint256"
        },
        {
          "indexed": false,
          "internalType": "uint256",
          "name": "_eventNonce",
          "type": "uint256"
        },
        {
          "indexed": false,
          "internalType": "uint256",
          "name": "_rewardAmount",
          "type": "uint256"
        },
        {
          "indexed": false,
          "internalType": "address",
          "name": "_rewardToken",
          "type": "address"
        },
        {
          "indexed": false,
          "internalType": "address[]",
          "name": "_validators",
          "type": "address[]"
        },
        {
          "indexed": false,
          "internalType": "uint256[]",
          "name": "_powers",
          "type": "uint256[]"
        }
      ],
      "name": "ValsetUpdatedEvent",
      "type": "event"
    },
    {
      "anonymous": false,
      "inputs": [
        {
          "indexed": false,
          "internalType": "address",
          "name": "_sender",
          "type": "address"
        },
        {
          "indexed": false,
          "internalType": "address[]",
          "name": "_users",
          "type": "address[]"
        },
        {
          "indexed": false,
          "internalType": "bool",
          "name": "_isWhitelisted",
          "type": "bool"
        }
      ],
      "name": "WhitelistedStatusModified",
      "type": "event"
    },
    {
      "inputs": [],
      "name": "cudosAccessControls",
      "outputs": [
        {
          "internalType": "contract CudosAccessControls",
          "name": "",
          "type": "address"
        }
      ],
      "stateMutability": "view",
      "type": "function"
    },
    {
      "inputs": [
        {
          "internalType": "string",
          "name": "_cosmosDenom",
          "type": "string"
        },
        {
          "internalType": "string",
          "name": "_name",
          "type": "string"
        },
        {
          "internalType": "string",
          "name": "_symbol",
          "type": "string"
        },
        {
          "internalType": "uint8",
          "name": "_decimals",
          "type": "uint8"
        }
      ],
      "name": "deployERC20",
      "outputs": [],
      "stateMutability": "nonpayable",
      "type": "function"
    },
    {
      "inputs": [
        {
          "internalType": "address",
          "name": "_erc20Address",
          "type": "address"
        }
      ],
      "name": "lastBatchNonce",
      "outputs": [
        {
          "internalType": "uint256",
          "name": "",
          "type": "uint256"
        }
      ],
      "stateMutability": "view",
      "type": "function"
    },
    {
      "inputs": [
        {
          "internalType": "bytes32",
          "name": "_invalidation_id",
          "type": "bytes32"
        }
      ],
      "name": "lastLogicCallNonce",
      "outputs": [
        {
          "internalType": "uint256",
          "name": "",
          "type": "uint256"
        }
      ],
      "stateMutability": "view",
      "type": "function"
    },
    {
      "inputs": [
        {
          "internalType": "address[]",
          "name": "_users",
          "type": "address[]"
        },
        {
          "internalType": "bool",
          "name": "_isWhitelisted",
          "type": "bool"
        }
      ],
      "name": "manageWhitelist",
      "outputs": [],
      "stateMutability": "nonpayable",
      "type": "function"
    },
    {
      "inputs": [
        {
          "internalType": "address",
          "name": "_tokenContract",
          "type": "address"
        },
        {
          "internalType": "bytes32",
          "name": "_destination",
          "type": "bytes32"
        },
        {
          "internalType": "uint256",
          "name": "_amount",
          "type": "uint256"
        }
      ],
      "name": "sendToCosmos",
      "outputs": [],
      "stateMutability": "nonpayable",
      "type": "function"
    },
    {
      "inputs": [],
      "name": "state_gravityId",
      "outputs": [
        {
          "internalType": "bytes32",
          "name": "",
          "type": "bytes32"
        }
      ],
      "stateMutability": "view",
      "type": "function"
    },
    {
      "inputs": [
        {
          "internalType": "bytes32",
          "name": "",
          "type": "bytes32"
        }
      ],
      "name": "state_invalidationMapping",
      "outputs": [
        {
          "internalType": "uint256",
          "name": "",
          "type": "uint256"
        }
      ],
      "stateMutability": "view",
      "type": "function"
    },
    {
      "inputs": [
        {
          "internalType": "address",
          "name": "",
          "type": "address"
        }
      ],
      "name": "state_lastBatchNonces",
      "outputs": [
        {
          "internalType": "uint256",
          "name": "",
          "type": "uint256"
        }
      ],
      "stateMutability": "view",
      "type": "function"
    },
    {
      "inputs": [],
      "name": "state_lastEventNonce",
      "outputs": [
        {
          "internalType": "uint256",
          "name": "",
          "type": "uint256"
        }
      ],
      "stateMutability": "view",
      "type": "function"
    },
    {
      "inputs": [],
      "name": "state_lastValsetCheckpoint",
      "outputs": [
        {
          "internalType": "bytes32",
          "name": "",
          "type": "bytes32"
        }
      ],
      "stateMutability": "view",
      "type": "function"
    },
    {
      "inputs": [],
      "name": "state_lastValsetNonce",
      "outputs": [
        {
          "internalType": "uint256",
          "name": "",
          "type": "uint256"
        }
      ],
      "stateMutability": "view",
      "type": "function"
    },
    {
      "inputs": [],
      "name": "state_powerThreshold",
      "outputs": [
        {
          "internalType": "uint256",
          "name": "",
          "type": "uint256"
        }
      ],
      "stateMutability": "view",
      "type": "function"
    },
    {
      "inputs": [
        {
          "components": [
            {
              "internalType": "address[]",
              "name": "validators",
              "type": "address[]"
            },
            {
              "internalType": "uint256[]",
              "name": "powers",
              "type": "uint256[]"
            },
            {
              "internalType": "uint256",
              "name": "valsetNonce",
              "type": "uint256"
            },
            {
              "internalType": "uint256",
              "name": "rewardAmount",
              "type": "uint256"
            },
            {
              "internalType": "address",
              "name": "rewardToken",
              "type": "address"
            }
          ],
          "internalType": "struct ValsetArgs",
          "name": "_currentValset",
          "type": "tuple"
        },
        {
          "internalType": "uint8[]",
          "name": "_v",
          "type": "uint8[]"
        },
        {
          "internalType": "bytes32[]",
          "name": "_r",
          "type": "bytes32[]"
        },
        {
          "internalType": "bytes32[]",
          "name": "_s",
          "type": "bytes32[]"
        },
        {
          "internalType": "uint256[]",
          "name": "_amounts",
          "type": "uint256[]"
        },
        {
          "internalType": "address[]",
          "name": "_destinations",
          "type": "address[]"
        },
        {
          "internalType": "uint256[]",
          "name": "_fees",
          "type": "uint256[]"
        },
        {
          "internalType": "uint256",
          "name": "_batchNonce",
          "type": "uint256"
        },
        {
          "internalType": "address",
          "name": "_tokenContract",
          "type": "address"
        },
        {
          "internalType": "uint256",
          "name": "_batchTimeout",
          "type": "uint256"
        }
      ],
      "name": "submitBatch",
      "outputs": [],
      "stateMutability": "nonpayable",
      "type": "function"
    },
    {
      "inputs": [
        {
          "components": [
            {
              "internalType": "address[]",
              "name": "validators",
              "type": "address[]"
            },
            {
              "internalType": "uint256[]",
              "name": "powers",
              "type": "uint256[]"
            },
            {
              "internalType": "uint256",
              "name": "valsetNonce",
              "type": "uint256"
            },
            {
              "internalType": "uint256",
              "name": "rewardAmount",
              "type": "uint256"
            },
            {
              "internalType": "address",
              "name": "rewardToken",
              "type": "address"
            }
          ],
          "internalType": "struct ValsetArgs",
          "name": "_currentValset",
          "type": "tuple"
        },
        {
          "internalType": "uint8[]",
          "name": "_v",
          "type": "uint8[]"
        },
        {
          "internalType": "bytes32[]",
          "name": "_r",
          "type": "bytes32[]"
        },
        {
          "internalType": "bytes32[]",
          "name": "_s",
          "type": "bytes32[]"
        },
        {
          "components": [
            {
              "internalType": "uint256[]",
              "name": "transferAmounts",
              "type": "uint256[]"
            },
            {
              "internalType": "address[]",
              "name": "transferTokenContracts",
              "type": "address[]"
            },
            {
              "internalType": "uint256[]",
              "name": "feeAmounts",
              "type": "uint256[]"
            },
            {
              "internalType": "address[]",
              "name": "feeTokenContracts",
              "type": "address[]"
            },
            {
              "internalType": "address",
              "name": "logicContractAddress",
              "type": "address"
            },
            {
              "internalType": "bytes",
              "name": "payload",
              "type": "bytes"
            },
            {
              "internalType": "uint256",
              "name": "timeOut",
              "type": "uint256"
            },
            {
              "internalType": "bytes32",
              "name": "invalidationId",
              "type": "bytes32"
            },
            {
              "internalType": "uint256",
              "name": "invalidationNonce",
              "type": "uint256"
            }
          ],
          "internalType": "struct LogicCallArgs",
          "name": "_args",
          "type": "tuple"
        }
      ],
      "name": "submitLogicCall",
      "outputs": [],
      "stateMutability": "nonpayable",
      "type": "function"
    },
    {
      "inputs": [
        {
          "internalType": "address[]",
          "name": "_currentValidators",
          "type": "address[]"
        },
        {
          "internalType": "uint256[]",
          "name": "_currentPowers",
          "type": "uint256[]"
        },
        {
          "internalType": "uint8[]",
          "name": "_v",
          "type": "uint8[]"
        },
        {
          "internalType": "bytes32[]",
          "name": "_r",
          "type": "bytes32[]"
        },
        {
          "internalType": "bytes32[]",
          "name": "_s",
          "type": "bytes32[]"
        },
        {
          "internalType": "bytes32",
          "name": "_theHash",
          "type": "bytes32"
        },
        {
          "internalType": "uint256",
          "name": "_powerThreshold",
          "type": "uint256"
        }
      ],
      "name": "testCheckValidatorSignatures",
      "outputs": [],
      "stateMutability": "pure",
      "type": "function"
    },
    {
      "inputs": [
        {
          "components": [
            {
              "internalType": "address[]",
              "name": "validators",
              "type": "address[]"
            },
            {
              "internalType": "uint256[]",
              "name": "powers",
              "type": "uint256[]"
            },
            {
              "internalType": "uint256",
              "name": "valsetNonce",
              "type": "uint256"
            },
            {
              "internalType": "uint256",
              "name": "rewardAmount",
              "type": "uint256"
            },
            {
              "internalType": "address",
              "name": "rewardToken",
              "type": "address"
            }
          ],
          "internalType": "struct ValsetArgs",
          "name": "_valsetArgs",
          "type": "tuple"
        },
        {
          "internalType": "bytes32",
          "name": "_gravityId",
          "type": "bytes32"
        }
      ],
      "name": "testMakeCheckpoint",
      "outputs": [],
      "stateMutability": "pure",
      "type": "function"
    },
    {
      "inputs": [
        {
          "components": [
            {
              "internalType": "address[]",
              "name": "validators",
              "type": "address[]"
            },
            {
              "internalType": "uint256[]",
              "name": "powers",
              "type": "uint256[]"
            },
            {
              "internalType": "uint256",
              "name": "valsetNonce",
              "type": "uint256"
            },
            {
              "internalType": "uint256",
              "name": "rewardAmount",
              "type": "uint256"
            },
            {
              "internalType": "address",
              "name": "rewardToken",
              "type": "address"
            }
          ],
          "internalType": "struct ValsetArgs",
          "name": "_newValset",
          "type": "tuple"
        },
        {
          "components": [
            {
              "internalType": "address[]",
              "name": "validators",
              "type": "address[]"
            },
            {
              "internalType": "uint256[]",
              "name": "powers",
              "type": "uint256[]"
            },
            {
              "internalType": "uint256",
              "name": "valsetNonce",
              "type": "uint256"
            },
            {
              "internalType": "uint256",
              "name": "rewardAmount",
              "type": "uint256"
            },
            {
              "internalType": "address",
              "name": "rewardToken",
              "type": "address"
            }
          ],
          "internalType": "struct ValsetArgs",
          "name": "_currentValset",
          "type": "tuple"
        },
        {
          "internalType": "uint8[]",
          "name": "_v",
          "type": "uint8[]"
        },
        {
          "internalType": "bytes32[]",
          "name": "_r",
          "type": "bytes32[]"
        },
        {
          "internalType": "bytes32[]",
          "name": "_s",
          "type": "bytes32[]"
        }
      ],
      "name": "updateValset",
      "outputs": [],
      "stateMutability": "nonpayable",
      "type": "function"
    },
    {
      "inputs": [
        {
          "internalType": "address",
          "name": "",
          "type": "address"
        }
      ],
      "name": "whitelisted",
      "outputs": [
        {
          "internalType": "bool",
          "name": "",
          "type": "bool"
        }
      ],
      "stateMutability": "view",
      "type": "function"
    },
    {
      "inputs": [
        {
          "internalType": "address",
          "name": "_tokenAddress",
          "type": "address"
        }
      ],
      "name": "withdrawERC20",
      "outputs": [],
      "stateMutability": "nonpayable",
      "type": "function"
    }
  ],
  "bytecode": "0x6080604052600060045560016005553480156200001b57600080fd5b5060405162003fe338038062003fe38339810160408190526200003e91620002f5565b60016000558151835114620000705760405162461bcd60e51b815260040162000067906200056c565b60405180910390fd5b6001600160a01b038116620000995760405162461bcd60e51b8152600401620000679062000520565b6000805b8351811015620000d857838181518110620000b457fe5b60200260200101518201915085821115620000cf57620000d8565b6001016200009d565b50848111620000fb5760405162461bcd60e51b81526004016200006790620004c3565b620001056200022f565b506040805160a0810182528581526020810185905260009181018290526060810182905260808101829052906200013d8289620001c1565b600689905560078890556001819055600880546001600160a01b0319166001600160a01b03871617905560045460055460405192935090917f76d08978c024a4bf8cbb30c67fd78fcaa1827cbc533e4e175f36d07e64ccf96a91620001ab9160009081908c908c90620005a3565b60405180910390a2505050505050505062000639565b6000806918da1958dadc1bda5b9d60b21b60001b90506000838286604001518760000151886020015189606001518a608001516040516020016200020c979695949392919062000463565b60408051601f198184030181529190528051602090910120925050505b92915050565b6040518060a001604052806060815260200160608152602001600081526020016000815260200160006001600160a01b031681525090565b80516001600160a01b03811681146200022957600080fd5b600082601f83011262000290578081fd5b8151620002a7620002a18262000619565b620005f2565b818152915060208083019084810181840286018201871015620002c957600080fd5b60005b84811015620002ea57815184529282019290820190600101620002cc565b505050505092915050565b600080600080600060a086880312156200030d578081fd5b855160208088015160408901519297509550906001600160401b038082111562000335578384fd5b818901915089601f83011262000349578384fd5b81516200035a620002a18262000619565b81815284810190848601868402860187018e101562000377578788fd5b8795505b83861015620003a557620003908e8262000267565b8352600195909501949186019186016200037b565b5060608c01519098509450505080831115620003bf578384fd5b5050620003cf888289016200027f565b925050620003e1876080880162000267565b90509295509295909350565b6000815180845260208085019450808401835b83811015620004275781516001600160a01b03168752958201959082019060010162000400565b509495945050505050565b6000815180845260208085019450808401835b83811015620004275781518752958201959082019060010162000445565b600088825287602083015286604083015260e060608301526200048a60e0830187620003ed565b82810360808401526200049e818762000432565b60a084019590955250506001600160a01b039190911660c09091015295945050505050565b6020808252603c908201527f5375626d69747465642076616c696461746f7220736574207369676e6174757260408201527f657320646f206e6f74206861766520656e6f75676820706f7765722e00000000606082015260800190565b6020808252602c908201527f41636365737320636f6e74726f6c20636f6e747261637420616464726573732060408201526b1a5cc81a5b98dbdc9c9958dd60a21b606082015260800190565b6020808252601f908201527f4d616c666f726d65642063757272656e742076616c696461746f722073657400604082015260600190565b600086825285602083015260018060a01b038516604083015260a06060830152620005d260a0830185620003ed565b8281036080840152620005e6818562000432565b98975050505050505050565b6040518181016001600160401b03811182821017156200061157600080fd5b604052919050565b60006001600160401b038211156200062f578081fd5b5060209081020190565b61399a80620006496000396000f3fe60806040523480156200001157600080fd5b5060043610620001485760003560e01c8063bdda81d411620000bd578063e5a2b5d2116200007b578063e5a2b5d214620002aa578063ec610dc014620002b4578063f2b5330714620002cb578063f4f3b20014620002d5578063f795563714620002ec5762000148565b8063bdda81d41462000235578063c9d194d5146200023f578063d936547e1462000256578063db7c4e57146200027c578063df97174b14620002935762000148565b806373b20547116200010b57806373b2054714620001dc5780637dfb6f8614620001e65780638174741814620001fd578063a5352f5b1462000214578063b56561fe146200022b5762000148565b806301031525146200014d578063011b217414620001665780631c79c97014620001955780631ffbe7f914620001ae5780634c164fef14620001c5575b600080fd5b620001646200015e36600462001f98565b62000303565b005b6200017d6200017736600462001aec565b62000314565b6040516200018c91906200229d565b60405180910390f35b6200019f6200032f565b6040516200018c9190620021ba565b62000164620001bf36600462001b0a565b6200033e565b62000164620001d636600462001ebc565b620003f1565b6200017d620007f9565b6200017d620001f736600462001caf565b620007ff565b620001646200020e36600462001d6a565b62000811565b620001646200022536600462001fdf565b62000b9b565b6200017d62000e5d565b6200017d62000e63565b6200017d6200025036600462001caf565b62000e69565b6200026d6200026736600462001aec565b62000e7b565b6040516200018c919062002292565b620001646200028d36600462001b4b565b62000e90565b6200017d620002a436600462001aec565b62000eaa565b6200017d62000ebc565b62000164620002c536600462001c3a565b62000ec2565b6200017d62001067565b62000164620002e636600462001aec565b6200106d565b62000164620002fd36600462001cc8565b620011b3565b6200030f82826200125f565b505050565b6001600160a01b031660009081526002602052604090205490565b6008546001600160a01b031681565b600260005414156200036d5760405162461bcd60e51b81526004016200036490620029cc565b60405180910390fd5b6002600055620003896001600160a01b038416333084620012cd565b600554620003999060016200132f565b6005819055604051839133916001600160a01b038716917fd7767894d73c589daeca9643f445f03d7be61aad2950c117e7cbff4176fca7e491620003df91879162002a3a565b60405180910390a45050600160005550565b60026000541415620004175760405162461bcd60e51b81526004016200036490620029cc565b600260009081553381526009602052604090205460ff1680620004bb575060085460405163c395fcb360e01b81526001600160a01b039091169063c395fcb39062000467903390600401620021ba565b60206040518083038186803b1580156200048057600080fd5b505afa15801562000495573d6000803e3d6000fd5b505050506040513d601f19601f82011682018060405250810190620004bb919062001c90565b620004da5760405162461bcd60e51b8152600401620003649062002735565b8060c001514310620005005760405162461bcd60e51b81526004016200036490620026cf565b61010081015160e0820151600090815260036020526040902054106200053a5760405162461bcd60e51b8152600401620003649062002604565b6020850151518551511480156200055357508351855151145b80156200056257508251855151145b80156200057157508151855151145b620005905760405162461bcd60e51b8152600401620003649062002995565b600154620005a1866006546200125f565b14620005c15760405162461bcd60e51b815260040162000364906200251a565b60208101515181515114620005ea5760405162461bcd60e51b81526004016200036490620027e2565b80606001515181604001515114620006165760405162461bcd60e51b81526004016200036490620024ea565b6000600654681b1bd9da58d0d85b1b60ba1b836000015184602001518560400151866060015187608001518860a001518960c001518a60e001518b6101000151604051602001620006729b9a9998979695949392919062002306565b604051602081830303815290604052805190602001209050620006a586600001518760200151878787866007546200135e565b61010082015160e08301516000908152600360205260408120919091555b8251518110156200072b5762000722836080015184600001518381518110620006e857fe5b6020026020010151856020015184815181106200070157fe5b60200260200101516001600160a01b0316620014689092919063ffffffff16565b600101620006c3565b5060606200074283608001518460a001516200148a565b905060005b8360400151518110156200078d576200078433856040015183815181106200076b57fe5b6020026020010151866060015184815181106200070157fe5b60010162000747565b506005546200079e9060016200132f565b600581905560e08401516101008501516040517f7c2bb24f8e1b3725cb613d7f11ef97d9745cc97a0e40f730621c052d684077a193620007e39392918691906200242e565b60405180910390a1505060016000555050505050565b60055481565b60036020526000908152604090205481565b60026000541415620008375760405162461bcd60e51b81526004016200036490620029cc565b600260009081553381526009602052604090205460ff1680620008db575060085460405163c395fcb360e01b81526001600160a01b039091169063c395fcb39062000887903390600401620021ba565b60206040518083038186803b158015620008a057600080fd5b505afa158015620008b5573d6000803e3d6000fd5b505050506040513d601f19601f82011682018060405250810190620008db919062001c90565b620008fa5760405162461bcd60e51b8152600401620003649062002735565b6001600160a01b0382166000908152600260205260409020548311620009345760405162461bcd60e51b8152600401620003649062002577565b804310620009565760405162461bcd60e51b8152600401620003649062002785565b60208a0151518a51511480156200096f575088518a5151145b80156200097e575087518a5151145b80156200098d575086518a5151145b620009ac5760405162461bcd60e51b8152600401620003649062002995565b600154620009bd8b6006546200125f565b14620009dd5760405162461bcd60e51b815260040162000364906200251a565b84518651148015620009f0575083518651145b62000a0f5760405162461bcd60e51b81526004016200036490620025cd565b62000a758a600001518b602001518b8b8b6006546f0e8e4c2dce6c2c6e8d2dedc84c2e8c6d60831b8d8d8d8d8d8d60405160200162000a56989796959493929190620023b6565b604051602081830303815290604052805190602001206007546200135e565b6001600160a01b0382166000908152600260205260408120849055805b875181101562000b185762000ae487828151811062000aad57fe5b602002602001015189838151811062000ac257fe5b6020026020010151866001600160a01b0316620014689092919063ffffffff16565b62000b0d86828151811062000af557fe5b6020026020010151836200132f90919063ffffffff16565b915060010162000a92565b5062000b2f6001600160a01b038416338362001468565b5060055462000b409060016200132f565b60058190556040516001600160a01b0384169185917f02c7e81975f8edb86e2a0c038b7b86a49c744236abf0f6177ff5afc6986ab7089162000b82916200229d565b60405180910390a3505060016000555050505050505050565b6002600054141562000bc15760405162461bcd60e51b81526004016200036490620029cc565b600260009081553381526009602052604090205460ff168062000c65575060085460405163c395fcb360e01b81526001600160a01b039091169063c395fcb39062000c11903390600401620021ba565b60206040518083038186803b15801562000c2a57600080fd5b505afa15801562000c3f573d6000803e3d6000fd5b505050506040513d601f19601f8201168201806040525081019062000c65919062001c90565b62000c845760405162461bcd60e51b8152600401620003649062002735565b836040015185604001511162000cae5760405162461bcd60e51b81526004016200036490620028b7565b6020850151518551511462000cd75760405162461bcd60e51b8152600401620003649062002823565b60208401515184515114801562000cf057508251845151145b801562000cff57508151845151145b801562000d0e57508051845151145b62000d2d5760405162461bcd60e51b8152600401620003649062002995565b60015462000d3e856006546200125f565b1462000d5e5760405162461bcd60e51b815260040162000364906200251a565b600062000d6e866006546200125f565b905062000d8b85600001518660200151868686866007546200135e565b6001819055604086015160045560808601516001600160a01b03161580159062000db85750606086015115155b1562000de65762000de633876060015188608001516001600160a01b0316620014689092919063ffffffff16565b60055462000df69060016200132f565b6005819055604080880151606089015160808a01518a5160208c0151945193957f76d08978c024a4bf8cbb30c67fd78fcaa1827cbc533e4e175f36d07e64ccf96a9562000e4895919493929162002a48565b60405180910390a25050600160005550505050565b60045481565b60065481565b60009081526003602052604090205490565b60096020526000908152604090205460ff1681565b62000ea1878787878787876200135e565b50505050505050565b60026020526000908152604090205481565b60075481565b3360009081526009602052604090205460ff168062000f62575060085460405163c395fcb360e01b81526001600160a01b039091169063c395fcb39062000f0e903390600401620021ba565b60206040518083038186803b15801562000f2757600080fd5b505afa15801562000f3c573d6000803e3d6000fd5b505050506040513d601f19601f8201168201806040525081019062000f62919062001c90565b62000f815760405162461bcd60e51b8152600401620003649062002735565b60005b8251811015620010255760006001600160a01b031683828151811062000fa657fe5b60200260200101516001600160a01b0316141562000fd85760405162461bcd60e51b8152600401620003649062002698565b816009600085848151811062000fea57fe5b6020908102919091018101516001600160a01b03168252810191909152604001600020805460ff191691151591909117905560010162000f84565b507fcab5530ea1d2ef9ce712ff6e0ed0780d3c1396fdd787b2b7ec0a5fdc95815fdd3383836040516200105b93929190620021ce565b60405180910390a15050565b60015481565b60085460405163c395fcb360e01b81526001600160a01b039091169063c395fcb3906200109f903390600401620021ba565b60206040518083038186803b158015620010b857600080fd5b505afa158015620010cd573d6000803e3d6000fd5b505050506040513d601f19601f82011682018060405250810190620010f3919062001c90565b620011125760405162461bcd60e51b8152600401620003649062002a03565b6040516370a0823160e01b81526000906001600160a01b038316906370a082319062001143903090600401620021ba565b60206040518083038186803b1580156200115c57600080fd5b505afa15801562001171573d6000803e3d6000fd5b505050506040513d601f19601f82011682018060405250810190620011979190620020ae565b9050620011af6001600160a01b038316338362001468565b5050565b600030848484604051620011c7906200172a565b620011d694939291906200222a565b604051809103906000f080158015620011f3573d6000803e3d6000fd5b50600554909150620012079060016200132f565b60058190556040516001600160a01b038316917f82fe3a4fa49c6382d0c085746698ddbbafe6c2bf61285b19410644b5b26287c791620012509189918991899189919062002493565b60405180910390a25050505050565b6000806918da1958dadc1bda5b9d60b21b60001b90506000838286604001518760000151886020015189606001518a60800151604051602001620012aa9796959493929190620022a6565b60408051601f198184030181529190528051602090910120925050505b92915050565b62001329846323b872dd60e01b858585604051602401620012f19392919062002206565b60408051601f198184030181529190526020810180516001600160e01b03166001600160e01b031990931692909217909152620014ce565b50505050565b600082820183811015620013575760405162461bcd60e51b8152600401620003649062002661565b9392505050565b6000805b88518110156200143b578681815181106200137957fe5b602002602001015160ff166000146200143257620013eb8982815181106200139d57fe5b602002602001015185898481518110620013b357fe5b6020026020010151898581518110620013c857fe5b6020026020010151898681518110620013dd57fe5b602002602001015162001565565b6200140a5760405162461bcd60e51b81526004016200036490620026f2565b8781815181106200141757fe5b6020026020010151820191508282111562001432576200143b565b60010162001362565b508181116200145e5760405162461bcd60e51b815260040162000364906200285a565b5050505050505050565b6200030f8363a9059cbb60e01b8484604051602401620012f192919062002279565b60606200135783836040518060400160405280601e81526020017f416464726573733a206c6f772d6c6576656c2063616c6c206661696c6564000081525062001605565b606062001525826040518060400160405280602081526020017f5361666545524332303a206c6f772d6c6576656c2063616c6c206661696c6564815250856001600160a01b0316620016059092919063ffffffff16565b8051909150156200030f578080602001905181019062001546919062001c90565b6200030f5760405162461bcd60e51b815260040162000364906200294b565b600080856040516020016200157b919062002189565b60405160208183030381529060405280519060200120905060018186868660405160008152602001604052604051620015b8949392919062002460565b6020604051602081039080840390855afa158015620015db573d6000803e3d6000fd5b505050602060405103516001600160a01b0316876001600160a01b03161491505095945050505050565b60606200161684846000856200161e565b949350505050565b60606200162b85620016f0565b6200164a5760405162461bcd60e51b8152600401620003649062002914565b60006060866001600160a01b031685876040516200166991906200216b565b60006040518083038185875af1925050503d8060008114620016a8576040519150601f19603f3d011682016040523d82523d6000602084013e620016ad565b606091505b50915091508115620016c3579150620016169050565b805115620016d45780518082602001fd5b8360405162461bcd60e51b81526004016200036491906200247e565b6000813f7fc5d2460186f7233c927e7db2dcc703c0e500b653ca82273b7bfad8045d85a47081811480159062001616575050151592915050565b610e438062002b2283390190565b80356001600160a01b0381168114620012c757600080fd5b600082601f83011262001761578081fd5b813562001778620017728262002abf565b62002a97565b8181529150602080830190848101818402860182018710156200179a57600080fd5b60005b84811015620017c557620017b2888362001738565b845292820192908201906001016200179d565b505050505092915050565b600082601f830112620017e1578081fd5b8135620017f2620017728262002abf565b8181529150602080830190848101818402860182018710156200181457600080fd5b60005b84811015620017c55781358452928201929082019060010162001817565b600082601f83011262001846578081fd5b813562001857620017728262002abf565b8181529150602080830190848101818402860182018710156200187957600080fd5b60005b84811015620017c55762001891888362001ada565b845292820192908201906001016200187c565b600082601f830112620018b5578081fd5b813567ffffffffffffffff811115620018cc578182fd5b620018e1601f8201601f191660200162002a97565b9150808252836020828501011115620018f957600080fd5b8060208401602084013760009082016020015292915050565b600061012080838503121562001926578182fd5b620019318162002a97565b915050813567ffffffffffffffff808211156200194d57600080fd5b6200195b85838601620017d0565b835260208401359150808211156200197257600080fd5b620019808583860162001750565b602084015260408401359150808211156200199a57600080fd5b620019a885838601620017d0565b60408401526060840135915080821115620019c257600080fd5b620019d08583860162001750565b6060840152620019e4856080860162001738565b608084015260a0840135915080821115620019fe57600080fd5b5062001a0d84828501620018a4565b60a08301525060c082013560c082015260e082013560e082015261010080830135818301525092915050565b600060a0828403121562001a4b578081fd5b62001a5760a062002a97565b9050813567ffffffffffffffff8082111562001a7257600080fd5b62001a808583860162001750565b8352602084013591508082111562001a9757600080fd5b5062001aa684828501620017d0565b602083015250604082013560408201526060820135606082015262001acf836080840162001738565b608082015292915050565b803560ff81168114620012c757600080fd5b60006020828403121562001afe578081fd5b62001357838362001738565b60008060006060848603121562001b1f578182fd5b83356001600160a01b038116811462001b36578283fd5b95602085013595506040909401359392505050565b600080600080600080600060e0888a03121562001b66578283fd5b873567ffffffffffffffff8082111562001b7e578485fd5b62001b8c8b838c0162001750565b985060208a013591508082111562001ba2578485fd5b62001bb08b838c01620017d0565b975060408a013591508082111562001bc6578485fd5b62001bd48b838c0162001835565b965060608a013591508082111562001bea578485fd5b62001bf88b838c01620017d0565b955060808a013591508082111562001c0e578485fd5b5062001c1d8a828b01620017d0565b93505060a0880135915060c0880135905092959891949750929550565b6000806040838503121562001c4d578182fd5b823567ffffffffffffffff81111562001c64578283fd5b62001c728582860162001750565b925050602083013562001c858162002b0f565b809150509250929050565b60006020828403121562001ca2578081fd5b8151620013578162002b0f565b60006020828403121562001cc1578081fd5b5035919050565b6000806000806080858703121562001cde578182fd5b843567ffffffffffffffff8082111562001cf6578384fd5b62001d0488838901620018a4565b9550602087013591508082111562001d1a578384fd5b62001d2888838901620018a4565b9450604087013591508082111562001d3e578384fd5b5062001d4d87828801620018a4565b92505062001d5f866060870162001ada565b905092959194509250565b6000806000806000806000806000806101408b8d03121562001d8a578384fd5b8a3567ffffffffffffffff8082111562001da2578586fd5b62001db08e838f0162001a39565b9b5060208d013591508082111562001dc6578586fd5b62001dd48e838f0162001835565b9a5060408d013591508082111562001dea578586fd5b62001df88e838f01620017d0565b995060608d013591508082111562001e0e578586fd5b62001e1c8e838f01620017d0565b985060808d013591508082111562001e32578586fd5b62001e408e838f01620017d0565b975060a08d013591508082111562001e56578586fd5b62001e648e838f0162001750565b965060c08d013591508082111562001e7a578586fd5b5062001e898d828e01620017d0565b94505060e08b0135925062001ea38c6101008d0162001738565b91506101208b013590509295989b9194979a5092959850565b600080600080600060a0868803121562001ed4578283fd5b853567ffffffffffffffff8082111562001eec578485fd5b62001efa89838a0162001a39565b9650602088013591508082111562001f10578485fd5b62001f1e89838a0162001835565b9550604088013591508082111562001f34578485fd5b62001f4289838a01620017d0565b9450606088013591508082111562001f58578283fd5b62001f6689838a01620017d0565b9350608088013591508082111562001f7c578283fd5b5062001f8b8882890162001912565b9150509295509295909350565b6000806040838503121562001fab578182fd5b823567ffffffffffffffff81111562001fc2578283fd5b62001fd08582860162001a39565b95602094909401359450505050565b600080600080600060a0868803121562001ff7578283fd5b853567ffffffffffffffff808211156200200f578485fd5b6200201d89838a0162001a39565b9650602088013591508082111562002033578485fd5b6200204189838a0162001a39565b9550604088013591508082111562002057578485fd5b6200206589838a0162001835565b945060608801359150808211156200207b578283fd5b6200208989838a01620017d0565b935060808801359150808211156200209f578283fd5b5062001f8b88828901620017d0565b600060208284031215620020c0578081fd5b5051919050565b6000815180845260208085019450808401835b83811015620021015781516001600160a01b031687529582019590820190600101620020da565b509495945050505050565b6000815180845260208085019450808401835b8381101562002101578151875295820195908201906001016200211f565b600081518084526200215781602086016020860162002ae0565b601f01601f19169290920160200192915050565b600082516200217f81846020870162002ae0565b9190910192915050565b7f19457468657265756d205369676e6564204d6573736167653a0a3332000000008152601c810191909152603c0190565b6001600160a01b0391909116815260200190565b6001600160a01b0384168152606060208201819052600090620021f490830185620020c7565b90508215156040830152949350505050565b6001600160a01b039384168152919092166020820152604081019190915260600190565b6001600160a01b038516815260806020820181905260009062002250908301866200213d565b82810360408401526200226481866200213d565b91505060ff8316606083015295945050505050565b6001600160a01b03929092168252602082015260400190565b901515815260200190565b90815260200190565b600088825287602083015286604083015260e06060830152620022cd60e0830187620020c7565b8281036080840152620022e181876200210c565b60a084019590955250506001600160a01b039190911660c09091015295945050505050565b60006101608d83528c6020840152806040840152620023288184018d6200210c565b905082810360608401526200233e818c620020c7565b9050828103608084015262002354818b6200210c565b905082810360a08401526200236a818a620020c7565b6001600160a01b03891660c085015283810360e085015290506200238f81886200213d565b61010084019690965250506101208101929092526101409091015298975050505050505050565b60006101008a8352896020840152806040840152620023d88184018a6200210c565b90508281036060840152620023ee8189620020c7565b905082810360808401526200240481886200210c565b60a084019690965250506001600160a01b039290921660c083015260e09091015295945050505050565b6000858252846020830152608060408301526200244f60808301856200213d565b905082606083015295945050505050565b93845260ff9290921660208401526040830152606082015260800190565b6000602082526200135760208301846200213d565b600060a08252620024a860a08301886200213d565b8281036020840152620024bc81886200213d565b90508281036040840152620024d281876200213d565b60ff9590951660608401525050608001529392505050565b6020808252601690820152754d616c666f726d6564206c697374206f66206665657360501b604082015260600190565b6020808252603f908201527f537570706c6965642063757272656e742076616c696461746f727320616e642060408201527f706f7765727320646f206e6f74206d6174636820636865636b706f696e742e00606082015260800190565b60208082526036908201527f4e6577206261746368206e6f6e6365206d7573742062652067726561746572206040820152757468616e207468652063757272656e74206e6f6e636560501b606082015260800190565b6020808252601f908201527f4d616c666f726d6564206261746368206f66207472616e73616374696f6e7300604082015260600190565b6020808252603d908201527f4e657720696e76616c69646174696f6e206e6f6e6365206d757374206265206760408201527f726561746572207468616e207468652063757272656e74206e6f6e6365000000606082015260800190565b6020808252601b908201527f536166654d6174683a206164646974696f6e206f766572666c6f770000000000604082015260600190565b60208082526018908201527f5573657220697320746865207a65726f20616464726573730000000000000000604082015260600190565b602080825260099082015268151a5b5959081bdd5d60ba1b604082015260600190565b60208082526023908201527f56616c696461746f72207369676e617475726520646f6573206e6f74206d617460408201526231b41760e91b606082015260800190565b60208082526030908201527f5468652063616c6c6572206973206e6f742077686974656c697374656420666f60408201526f39103a3434b99037b832b930ba34b7b760811b606082015260800190565b6020808252603b908201527f42617463682074696d656f7574206d757374206265206772656174657220746860408201527f616e207468652063757272656e7420626c6f636b206865696768740000000000606082015260800190565b60208082526021908201527f4d616c666f726d6564206c697374206f6620746f6b656e207472616e736665726040820152607360f81b606082015260800190565b6020808252601b908201527f4d616c666f726d6564206e65772076616c696461746f72207365740000000000604082015260600190565b6020808252603c908201527f5375626d69747465642076616c696461746f7220736574207369676e6174757260408201527f657320646f206e6f74206861766520656e6f75676820706f7765722e00000000606082015260800190565b60208082526037908201527f4e65772076616c736574206e6f6e6365206d757374206265206772656174657260408201527f207468616e207468652063757272656e74206e6f6e6365000000000000000000606082015260800190565b6020808252601d908201527f416464726573733a2063616c6c20746f206e6f6e2d636f6e7472616374000000604082015260600190565b6020808252602a908201527f5361666545524332303a204552433230206f7065726174696f6e20646964206e6040820152691bdd081cdd58d8d9595960b21b606082015260800190565b6020808252601f908201527f4d616c666f726d65642063757272656e742076616c696461746f722073657400604082015260600190565b6020808252601f908201527f5265656e7472616e637947756172643a207265656e7472616e742063616c6c00604082015260600190565b60208082526019908201527f526563697069656e74206973206e6f7420616e2061646d696e00000000000000604082015260600190565b918252602082015260400190565b600086825285602083015260018060a01b038516604083015260a0606083015262002a7760a0830185620020c7565b828103608084015262002a8b81856200210c565b98975050505050505050565b60405181810167ffffffffffffffff8111828210171562002ab757600080fd5b604052919050565b600067ffffffffffffffff82111562002ad6578081fd5b5060209081020190565b60005b8381101562002afd57818101518382015260200162002ae3565b83811115620013295750506000910152565b801515811462002b1e57600080fd5b5056fe60806040526000196006553480156200001757600080fd5b5060405162000e4338038062000e43833981810160405260808110156200003d57600080fd5b8151602083018051604051929492938301929190846401000000008211156200006557600080fd5b9083019060208201858111156200007b57600080fd5b82516401000000008111828201881017156200009657600080fd5b82525081516020918201929091019080838360005b83811015620000c5578181015183820152602001620000ab565b50505050905090810190601f168015620000f35780820380516001836020036101000a031916815260200191505b50604052602001805160405193929190846401000000008211156200011757600080fd5b9083019060208201858111156200012d57600080fd5b82516401000000008111828201881017156200014857600080fd5b82525081516020918201929091019080838360005b83811015620001775781810151838201526020016200015d565b50505050905090810190601f168015620001a55780820380516001836020036101000a031916815260200191505b5060405260209081015185519093508592508491620001ca91600391850190620003a5565b508051620001e0906004906020840190620003a5565b50506005805460ff1916601217905550620001fb8162000219565b6200020f846006546200022f60201b60201c565b5050505062000441565b6005805460ff191660ff92909216919091179055565b6001600160a01b0382166200028b576040805162461bcd60e51b815260206004820152601f60248201527f45524332303a206d696e7420746f20746865207a65726f206164647265737300604482015290519081900360640190fd5b62000299600083836200033e565b620002b5816002546200034360201b620005731790919060201c565b6002556001600160a01b03821660009081526020818152604090912054620002e89183906200057362000343821b17901c565b6001600160a01b0383166000818152602081815260408083209490945583518581529351929391927fddf252ad1be2c89b69c2b068fc378daa952ba7f163c4a11628f55a4df523b3ef9281900390910190a35050565b505050565b6000828201838110156200039e576040805162461bcd60e51b815260206004820152601b60248201527f536166654d6174683a206164646974696f6e206f766572666c6f770000000000604482015290519081900360640190fd5b9392505050565b828054600181600116156101000203166002900490600052602060002090601f016020900481019282601f10620003e857805160ff191683800117855562000418565b8280016001018555821562000418579182015b8281111562000418578251825591602001919060010190620003fb565b50620004269291506200042a565b5090565b5b808211156200042657600081556001016200042b565b6109f280620004516000396000f3fe608060405234801561001057600080fd5b50600436106100a95760003560e01c8063395093511161007157806339509351146101d957806370a082311461020557806395d89b411461022b578063a457c2d714610233578063a9059cbb1461025f578063dd62ed3e1461028b576100a9565b806306fdde03146100ae578063095ea7b31461012b57806318160ddd1461016b57806323b872dd14610185578063313ce567146101bb575b600080fd5b6100b66102b9565b6040805160208082528351818301528351919283929083019185019080838360005b838110156100f05781810151838201526020016100d8565b50505050905090810190601f16801561011d5780820380516001836020036101000a031916815260200191505b509250505060405180910390f35b6101576004803603604081101561014157600080fd5b506001600160a01b03813516906020013561034f565b604080519115158252519081900360200190f35b61017361036c565b60408051918252519081900360200190f35b6101576004803603606081101561019b57600080fd5b506001600160a01b03813581169160208101359091169060400135610372565b6101c36103f9565b6040805160ff9092168252519081900360200190f35b610157600480360360408110156101ef57600080fd5b506001600160a01b038135169060200135610402565b6101736004803603602081101561021b57600080fd5b50356001600160a01b0316610450565b6100b661046b565b6101576004803603604081101561024957600080fd5b506001600160a01b0381351690602001356104cc565b6101576004803603604081101561027557600080fd5b506001600160a01b038135169060200135610534565b610173600480360360408110156102a157600080fd5b506001600160a01b0381358116916020013516610548565b60038054604080516020601f60026000196101006001881615020190951694909404938401819004810282018101909252828152606093909290918301828280156103455780601f1061031a57610100808354040283529160200191610345565b820191906000526020600020905b81548152906001019060200180831161032857829003601f168201915b5050505050905090565b600061036361035c6105d4565b84846105d8565b50600192915050565b60025490565b600061037f8484846106c4565b6103ef8461038b6105d4565b6103ea85604051806060016040528060288152602001610927602891396001600160a01b038a166000908152600160205260408120906103c96105d4565b6001600160a01b03168152602081019190915260400160002054919061081f565b6105d8565b5060019392505050565b60055460ff1690565b600061036361040f6105d4565b846103ea85600160006104206105d4565b6001600160a01b03908116825260208083019390935260409182016000908120918c168152925290205490610573565b6001600160a01b031660009081526020819052604090205490565b60048054604080516020601f60026000196101006001881615020190951694909404938401819004810282018101909252828152606093909290918301828280156103455780601f1061031a57610100808354040283529160200191610345565b60006103636104d96105d4565b846103ea8560405180606001604052806025815260200161099860259139600160006105036105d4565b6001600160a01b03908116825260208083019390935260409182016000908120918d1681529252902054919061081f565b60006103636105416105d4565b84846106c4565b6001600160a01b03918216600090815260016020908152604080832093909416825291909152205490565b6000828201838110156105cd576040805162461bcd60e51b815260206004820152601b60248201527f536166654d6174683a206164646974696f6e206f766572666c6f770000000000604482015290519081900360640190fd5b9392505050565b3390565b6001600160a01b03831661061d5760405162461bcd60e51b81526004018080602001828103825260248152602001806109746024913960400191505060405180910390fd5b6001600160a01b0382166106625760405162461bcd60e51b81526004018080602001828103825260228152602001806108df6022913960400191505060405180910390fd5b6001600160a01b03808416600081815260016020908152604080832094871680845294825291829020859055815185815291517f8c5be1e5ebec7d5bd14f71427d1e84f3dd0314c0f7b2291e5b200ac8c7c3b9259281900390910190a3505050565b6001600160a01b0383166107095760405162461bcd60e51b815260040180806020018281038252602581526020018061094f6025913960400191505060405180910390fd5b6001600160a01b03821661074e5760405162461bcd60e51b81526004018080602001828103825260238152602001806108bc6023913960400191505060405180910390fd5b6107598383836108b6565b61079681604051806060016040528060268152602001610901602691396001600160a01b038616600090815260208190526040902054919061081f565b6001600160a01b0380851660009081526020819052604080822093909355908416815220546107c59082610573565b6001600160a01b038084166000818152602081815260409182902094909455805185815290519193928716927fddf252ad1be2c89b69c2b068fc378daa952ba7f163c4a11628f55a4df523b3ef92918290030190a3505050565b600081848411156108ae5760405162461bcd60e51b81526004018080602001828103825283818151815260200191508051906020019080838360005b8381101561087357818101518382015260200161085b565b50505050905090810190601f1680156108a05780820380516001836020036101000a031916815260200191505b509250505060405180910390fd5b505050900390565b50505056fe45524332303a207472616e7366657220746f20746865207a65726f206164647265737345524332303a20617070726f766520746f20746865207a65726f206164647265737345524332303a207472616e7366657220616d6f756e7420657863656564732062616c616e636545524332303a207472616e7366657220616d6f756e74206578636565647320616c6c6f77616e636545524332303a207472616e736665722066726f6d20746865207a65726f206164647265737345524332303a20617070726f76652066726f6d20746865207a65726f206164647265737345524332303a2064656372656173656420616c6c6f77616e63652062656c6f77207a65726fa264697066735822122072e95703d4dcdbacd8d5b2207f75e857d33b3a75de710f672373de54218990d864736f6c634300060c0033a26469706673582212202e911fb0aa7af584f543e32da78743bb1a9c18ac6dd368db701372f7c8f6437964736f6c634300060c0033",
  "linkReferences": {},
  "deployedLinkReferences": {}
}